{
  "_format": "hh-sol-artifact-1",
  "contractName": "AgendaNFT",
  "sourceName": "contracts/AgendaNFT.sol",
  "abi": [
    {
      "constant": true,
      "inputs": [
        {
          "name": "_id",
          "type": "uint256"
        }
      ],
      "name": "paused",
      "outputs": [
        {
          "name": "",
          "type": "bool"
        }
      ],
      "payable": false,
      "stateMutability": "view",
      "type": "function"
    },
    {
      "constant": true,
      "inputs": [
        {
          "name": "account",
          "type": "address"
        },
        {
          "name": "id",
          "type": "uint256"
        }
      ],
      "name": "balanceOf",
      "outputs": [
        {
          "name": "",
          "type": "uint256"
        }
      ],
      "payable": false,
      "stateMutability": "view",
      "type": "function"
    },
    {
      "constant": true,
      "inputs": [
        {
          "name": "interfaceId",
          "type": "bytes4"
        }
      ],
      "name": "supportsInterface",
      "outputs": [
        {
          "name": "",
          "type": "bool"
        }
      ],
      "payable": false,
      "stateMutability": "view",
      "type": "function"
    },
    {
      "constant": true,
      "inputs": [
        {
          "name": "_tokenId",
          "type": "uint256"
        }
      ],
      "name": "uri",
      "outputs": [
        {
          "name": "",
          "type": "string"
        }
      ],
      "payable": false,
      "stateMutability": "view",
      "type": "function"
    },
    {
      "constant": false,
      "inputs": [
        {
          "name": "_id",
          "type": "uint256"
        }
      ],
      "name": "pause",
      "outputs": [],
      "payable": false,
      "stateMutability": "nonpayable",
      "type": "function"
    },
    {
      "constant": false,
      "inputs": [
        {
          "name": "id",
          "type": "uint256"
        },
        {
          "name": "amount",
          "type": "uint256"
        }
      ],
      "name": "mint",
      "outputs": [],
      "payable": false,
      "stateMutability": "nonpayable",
      "type": "function"
    },
    {
      "constant": false,
      "inputs": [
        {
          "name": "from",
          "type": "address"
        },
        {
          "name": "to",
          "type": "address"
        },
        {
          "name": "ids",
          "type": "uint256[]"
        },
        {
          "name": "amounts",
          "type": "uint256[]"
        },
        {
          "name": "data",
          "type": "bytes"
        }
      ],
      "name": "safeBatchTransferFrom",
      "outputs": [],
      "payable": false,
      "stateMutability": "nonpayable",
      "type": "function"
    },
    {
      "constant": false,
      "inputs": [],
      "name": "unpause",
      "outputs": [],
      "payable": false,
      "stateMutability": "nonpayable",
      "type": "function"
    },
    {
      "constant": true,
      "inputs": [
        {
          "name": "account",
          "type": "address"
        }
      ],
      "name": "isPauser",
      "outputs": [
        {
          "name": "",
          "type": "bool"
        }
      ],
      "payable": false,
      "stateMutability": "view",
      "type": "function"
    },
    {
      "constant": true,
      "inputs": [
        {
          "name": "accounts",
          "type": "address[]"
        },
        {
          "name": "ids",
          "type": "uint256[]"
        }
      ],
      "name": "balanceOfBatch",
      "outputs": [
        {
          "name": "",
          "type": "uint256[]"
        }
      ],
      "payable": false,
      "stateMutability": "view",
      "type": "function"
    },
    {
      "constant": true,
      "inputs": [],
      "name": "paused",
      "outputs": [
        {
          "name": "",
          "type": "bool"
        }
      ],
      "payable": false,
      "stateMutability": "view",
      "type": "function"
    },
    {
      "constant": false,
      "inputs": [
        {
          "name": "account",
          "type": "address"
        },
        {
          "name": "ids",
          "type": "uint256[]"
        },
        {
          "name": "values",
          "type": "uint256[]"
        }
      ],
      "name": "burnBatch",
      "outputs": [],
      "payable": false,
      "stateMutability": "nonpayable",
      "type": "function"
    },
    {
      "constant": false,
      "inputs": [],
      "name": "renouncePauser",
      "outputs": [],
      "payable": false,
      "stateMutability": "nonpayable",
      "type": "function"
    },
    {
      "constant": false,
      "inputs": [],
      "name": "renounceOwnership",
      "outputs": [],
      "payable": false,
      "stateMutability": "nonpayable",
      "type": "function"
    },
    {
      "constant": false,
      "inputs": [
        {
          "name": "account",
          "type": "address"
        }
      ],
      "name": "addPauser",
      "outputs": [],
      "payable": false,
      "stateMutability": "nonpayable",
      "type": "function"
    },
    {
      "constant": false,
      "inputs": [],
      "name": "pause",
      "outputs": [],
      "payable": false,
      "stateMutability": "nonpayable",
      "type": "function"
    },
    {
      "constant": true,
      "inputs": [],
      "name": "owner",
      "outputs": [
        {
          "name": "",
          "type": "address"
        }
      ],
      "payable": false,
      "stateMutability": "view",
      "type": "function"
    },
    {
      "constant": true,
      "inputs": [],
      "name": "isOwner",
      "outputs": [
        {
          "name": "",
          "type": "bool"
        }
      ],
      "payable": false,
      "stateMutability": "view",
      "type": "function"
    },
    {
      "constant": false,
      "inputs": [
        {
          "name": "operator",
          "type": "address"
        },
        {
          "name": "approved",
          "type": "bool"
        }
      ],
      "name": "setApprovalForAll",
      "outputs": [],
      "payable": false,
      "stateMutability": "nonpayable",
      "type": "function"
    },
    {
      "constant": false,
      "inputs": [
        {
          "name": "tos",
          "type": "address[]"
        },
        {
          "name": "ids",
          "type": "uint256[]"
        }
      ],
      "name": "transferMany",
      "outputs": [],
      "payable": false,
      "stateMutability": "nonpayable",
      "type": "function"
    },
    {
      "constant": true,
      "inputs": [
        {
          "name": "_tokenId",
          "type": "uint256"
        }
      ],
      "name": "totalSupply",
      "outputs": [
        {
          "name": "",
          "type": "uint256"
        }
      ],
      "payable": false,
      "stateMutability": "view",
      "type": "function"
    },
    {
      "constant": true,
      "inputs": [
        {
          "name": "account",
          "type": "address"
        },
        {
          "name": "operator",
          "type": "address"
        }
      ],
      "name": "isApprovedForAll",
      "outputs": [
        {
          "name": "",
          "type": "bool"
        }
      ],
      "payable": false,
      "stateMutability": "view",
      "type": "function"
    },
    {
      "constant": false,
      "inputs": [
        {
          "name": "from",
          "type": "address"
        },
        {
          "name": "to",
          "type": "address"
        },
        {
          "name": "id",
          "type": "uint256"
        },
        {
          "name": "amount",
          "type": "uint256"
        },
        {
          "name": "data",
          "type": "bytes"
        }
      ],
      "name": "safeTransferFrom",
      "outputs": [],
      "payable": false,
      "stateMutability": "nonpayable",
      "type": "function"
    },
    {
      "constant": false,
      "inputs": [
        {
          "name": "newOwner",
          "type": "address"
        }
      ],
      "name": "transferOwnership",
      "outputs": [],
      "payable": false,
      "stateMutability": "nonpayable",
      "type": "function"
    },
    {
      "constant": false,
      "inputs": [
        {
          "name": "account",
          "type": "address"
        },
        {
          "name": "id",
          "type": "uint256"
        },
        {
          "name": "value",
          "type": "uint256"
        }
      ],
      "name": "burn",
      "outputs": [],
      "payable": false,
      "stateMutability": "nonpayable",
      "type": "function"
    },
    {
      "constant": false,
      "inputs": [
        {
          "name": "_id",
          "type": "uint256"
        }
      ],
      "name": "unpause",
      "outputs": [],
      "payable": false,
      "stateMutability": "nonpayable",
      "type": "function"
    },
    {
      "inputs": [],
      "payable": false,
      "stateMutability": "nonpayable",
      "type": "constructor"
    },
    {
      "anonymous": false,
      "inputs": [
        {
          "indexed": false,
          "name": "tokenId",
          "type": "uint256"
        },
        {
          "indexed": false,
          "name": "account",
          "type": "address"
        }
      ],
      "name": "Paused",
      "type": "event"
    },
    {
      "anonymous": false,
      "inputs": [
        {
          "indexed": false,
          "name": "tokenId",
          "type": "uint256"
        },
        {
          "indexed": false,
          "name": "account",
          "type": "address"
        }
      ],
      "name": "Unpaused",
      "type": "event"
    },
    {
      "anonymous": false,
      "inputs": [
        {
          "indexed": false,
          "name": "account",
          "type": "address"
        }
      ],
      "name": "Paused",
      "type": "event"
    },
    {
      "anonymous": false,
      "inputs": [
        {
          "indexed": false,
          "name": "account",
          "type": "address"
        }
      ],
      "name": "Unpaused",
      "type": "event"
    },
    {
      "anonymous": false,
      "inputs": [
        {
          "indexed": true,
          "name": "account",
          "type": "address"
        }
      ],
      "name": "PauserAdded",
      "type": "event"
    },
    {
      "anonymous": false,
      "inputs": [
        {
          "indexed": true,
          "name": "account",
          "type": "address"
        }
      ],
      "name": "PauserRemoved",
      "type": "event"
    },
    {
      "anonymous": false,
      "inputs": [
        {
          "indexed": true,
          "name": "operator",
          "type": "address"
        },
        {
          "indexed": true,
          "name": "from",
          "type": "address"
        },
        {
          "indexed": true,
          "name": "to",
          "type": "address"
        },
        {
          "indexed": false,
          "name": "id",
          "type": "uint256"
        },
        {
          "indexed": false,
          "name": "value",
          "type": "uint256"
        }
      ],
      "name": "TransferSingle",
      "type": "event"
    },
    {
      "anonymous": false,
      "inputs": [
        {
          "indexed": true,
          "name": "operator",
          "type": "address"
        },
        {
          "indexed": true,
          "name": "from",
          "type": "address"
        },
        {
          "indexed": true,
          "name": "to",
          "type": "address"
        },
        {
          "indexed": false,
          "name": "ids",
          "type": "uint256[]"
        },
        {
          "indexed": false,
          "name": "values",
          "type": "uint256[]"
        }
      ],
      "name": "TransferBatch",
      "type": "event"
    },
    {
      "anonymous": false,
      "inputs": [
        {
          "indexed": true,
          "name": "account",
          "type": "address"
        },
        {
          "indexed": true,
          "name": "operator",
          "type": "address"
        },
        {
          "indexed": false,
          "name": "approved",
          "type": "bool"
        }
      ],
      "name": "ApprovalForAll",
      "type": "event"
    },
    {
      "anonymous": false,
      "inputs": [
        {
          "indexed": false,
          "name": "value",
          "type": "string"
        },
        {
          "indexed": true,
          "name": "id",
          "type": "uint256"
        }
      ],
      "name": "URI",
      "type": "event"
    },
    {
      "anonymous": false,
      "inputs": [
        {
          "indexed": true,
          "name": "previousOwner",
          "type": "address"
        },
        {
          "indexed": true,
          "name": "newOwner",
          "type": "address"
        }
      ],
      "name": "OwnershipTransferred",
      "type": "event"
    }
  ],
  "bytecode": "0x60806040523480156200001157600080fd5b506040518060600160405280603f8152602001620057b8603f9139336000806101000a81548173ffffffffffffffffffffffffffffffffffffffff021916908373ffffffffffffffffffffffffffffffffffffffff1602179055506000809054906101000a900473ffffffffffffffffffffffffffffffffffffffff1673ffffffffffffffffffffffffffffffffffffffff16600073ffffffffffffffffffffffffffffffffffffffff167f8be0079c531659141344cd1fd0a4f28419497f9722a3daafe3b4186f6b6457e060405160405180910390a3620001006301ffc9a760e01b620001d860201b60201c565b6200011181620002e160201b60201c565b62000129636433ca1f60e01b620001d860201b60201c565b62000141630e89341c60e01b620001d860201b60201c565b506200015a639e094e9e60e01b620001d860201b60201c565b6200016b33620002fd60201b60201c565b6000600760006101000a81548160ff0219169083151502179055506200019e630e8ffdb760e01b620001d860201b60201c565b620001d27f111692c963b37e6db67da9850938aede8e2abfe5ef30b60889f8ce7b3a6759d660001b6200035e60201b60201c565b620005d4565b63ffffffff60e01b817bffffffffffffffffffffffffffffffffffffffffffffffffffffffff1916141562000275576040517f08c379a000000000000000000000000000000000000000000000000000000000815260040180806020018281038252601b8152602001807f4b495031333a20696e76616c696420696e74657266616365206964000000000081525060200191505060405180910390fd5b6001806000837bffffffffffffffffffffffffffffffffffffffffffffffffffffffff19167bffffffffffffffffffffffffffffffffffffffffffffffffffffffff1916815260200190815260200160002060006101000a81548160ff02191690831515021790555050565b8060059080519060200190620002f992919062000525565b5050565b620003188160066200036160201b62004d161790919060201c565b8073ffffffffffffffffffffffffffffffffffffffff167f6719d08c1888103bea251a4ed56406bd0c3e69723c8a1686e017e7bbe159b6f860405160405180910390a250565b50565b6200037382826200044560201b60201c565b15620003e7576040517f08c379a000000000000000000000000000000000000000000000000000000000815260040180806020018281038252601f8152602001807f526f6c65733a206163636f756e7420616c72656164792068617320726f6c650081525060200191505060405180910390fd5b60018260000160008373ffffffffffffffffffffffffffffffffffffffff1673ffffffffffffffffffffffffffffffffffffffff16815260200190815260200160002060006101000a81548160ff0219169083151502179055505050565b60008073ffffffffffffffffffffffffffffffffffffffff168273ffffffffffffffffffffffffffffffffffffffff161415620004ce576040517f08c379a0000000000000000000000000000000000000000000000000000000008152600401808060200182810382526022815260200180620057966022913960400191505060405180910390fd5b8260000160008373ffffffffffffffffffffffffffffffffffffffff1673ffffffffffffffffffffffffffffffffffffffff16815260200190815260200160002060009054906101000a900460ff16905092915050565b828054600181600116156101000203166002900490600052602060002090601f016020900481019282601f106200056857805160ff191683800117855562000599565b8280016001018555821562000599579182015b82811115620005985782518255916020019190600101906200057b565b5b509050620005a89190620005ac565b5090565b620005d191905b80821115620005cd576000816000905550600101620005b3565b5090565b90565b6151b280620005e46000396000f3fe608060405234801561001057600080fd5b506004361061018c5760003560e01c8063715018a6116100de578063b7fc661211610097578063f242432a11610071578063f242432a14610c0d578063f2fde38b14610d1c578063f5298aca14610d60578063fabc1cbc14610db85761018c565b8063b7fc661214610a81578063bd85b03914610b4f578063e985e9c514610b915761018c565b8063715018a61461096d57806382dc1ec4146109775780638456cb59146109bb5780638da5cb5b146109c55780638f32d59b14610a0f578063a22cb46514610a315761018c565b80632eb2c2d61161014b5780634e1273f4116101255780634e1273f4146106345780635c975abb146107d55780636b20c454146107f75780636ef8d66d146109635761018c565b80632eb2c2d6146103ab5780633f4ba83a146105ce57806346fbf68e146105d85761018c565b8062dde10e14610191578062fdd58e146101d757806301ffc9a7146102395780630e89341c1461029e578063136439dd146103455780631b2ef1ca14610373575b600080fd5b6101bd600480360360208110156101a757600080fd5b8101908080359060200190929190505050610de6565b604051808215151515815260200191505060405180910390f35b610223600480360360408110156101ed57600080fd5b81019080803573ffffffffffffffffffffffffffffffffffffffff16906020019092919080359060200190929190505050610e10565b6040518082815260200191505060405180910390f35b6102846004803603602081101561024f57600080fd5b8101908080357bffffffffffffffffffffffffffffffffffffffffffffffffffffffff19169060200190929190505050610ef0565b604051808215151515815260200191505060405180910390f35b6102ca600480360360208110156102b457600080fd5b8101908080359060200190929190505050610f58565b6040518080602001828103825283818151815260200191508051906020019080838360005b8381101561030a5780820151818401526020810190506102ef565b50505050905090810190601f1680156103375780820380516001836020036101000a031916815260200191505b509250505060405180910390f35b6103716004803603602081101561035b57600080fd5b81019080803590602001909291905050506117e7565b005b6103a96004803603604081101561038957600080fd5b810190808035906020019092919080359060200190929190505050611979565b005b6105cc600480360360a08110156103c157600080fd5b81019080803573ffffffffffffffffffffffffffffffffffffffff169060200190929190803573ffffffffffffffffffffffffffffffffffffffff1690602001909291908035906020019064010000000081111561041e57600080fd5b82018360208201111561043057600080fd5b8035906020019184602083028401116401000000008311171561045257600080fd5b919080806020026020016040519081016040528093929190818152602001838360200280828437600081840152601f19601f820116905080830192505050505050509192919290803590602001906401000000008111156104b257600080fd5b8201836020820111156104c457600080fd5b803590602001918460208302840111640100000000831117156104e657600080fd5b919080806020026020016040519081016040528093929190818152602001838360200280828437600081840152601f19601f8201169050808301925050505050505091929192908035906020019064010000000081111561054657600080fd5b82018360208201111561055857600080fd5b8035906020019184600183028401116401000000008311171561057a57600080fd5b91908080601f016020809104026020016040519081016040528093929190818152602001838380828437600081840152601f19601f820116905080830192505050505050509192919290505050611a96565b005b6105d6611f79565b005b61061a600480360360208110156105ee57600080fd5b81019080803573ffffffffffffffffffffffffffffffffffffffff1690602001909291905050506120d9565b604051808215151515815260200191505060405180910390f35b61077e6004803603604081101561064a57600080fd5b810190808035906020019064010000000081111561066757600080fd5b82018360208201111561067957600080fd5b8035906020019184602083028401116401000000008311171561069b57600080fd5b919080806020026020016040519081016040528093929190818152602001838360200280828437600081840152601f19601f820116905080830192505050505050509192919290803590602001906401000000008111156106fb57600080fd5b82018360208201111561070d57600080fd5b8035906020019184602083028401116401000000008311171561072f57600080fd5b919080806020026020016040519081016040528093929190818152602001838360200280828437600081840152601f19601f8201169050808301925050505050505091929192905050506120f6565b6040518080602001828103825283818151815260200191508051906020019060200280838360005b838110156107c15780820151818401526020810190506107a6565b505050509050019250505060405180910390f35b6107dd6122d4565b604051808215151515815260200191505060405180910390f35b6109616004803603606081101561080d57600080fd5b81019080803573ffffffffffffffffffffffffffffffffffffffff1690602001909291908035906020019064010000000081111561084a57600080fd5b82018360208201111561085c57600080fd5b8035906020019184602083028401116401000000008311171561087e57600080fd5b919080806020026020016040519081016040528093929190818152602001838360200280828437600081840152601f19601f820116905080830192505050505050509192919290803590602001906401000000008111156108de57600080fd5b8201836020820111156108f057600080fd5b8035906020019184602083028401116401000000008311171561091257600080fd5b919080806020026020016040519081016040528093929190818152602001838360200280828437600081840152601f19601f8201169050808301925050505050505091929192905050506122eb565b005b61096b61239e565b005b6109756123a9565b005b6109b96004803603602081101561098d57600080fd5b81019080803573ffffffffffffffffffffffffffffffffffffffff1690602001909291905050506124e2565b005b6109c361254c565b005b6109cd6126ad565b604051808273ffffffffffffffffffffffffffffffffffffffff1673ffffffffffffffffffffffffffffffffffffffff16815260200191505060405180910390f35b610a176126d6565b604051808215151515815260200191505060405180910390f35b610a7f60048036036040811015610a4757600080fd5b81019080803573ffffffffffffffffffffffffffffffffffffffff16906020019092919080351515906020019092919050505061272d565b005b610b4d60048036036040811015610a9757600080fd5b8101908080359060200190640100000000811115610ab457600080fd5b820183602082011115610ac657600080fd5b80359060200191846020830284011164010000000083111715610ae857600080fd5b909192939192939080359060200190640100000000811115610b0957600080fd5b820183602082011115610b1b57600080fd5b80359060200191846020830284011164010000000083111715610b3d57600080fd5b90919293919293905050506128c8565b005b610b7b60048036036020811015610b6557600080fd5b8101908080359060200190929190505050612a8c565b6040518082815260200191505060405180910390f35b610bf360048036036040811015610ba757600080fd5b81019080803573ffffffffffffffffffffffffffffffffffffffff169060200190929190803573ffffffffffffffffffffffffffffffffffffffff169060200190929190505050612aa9565b604051808215151515815260200191505060405180910390f35b610d1a600480360360a0811015610c2357600080fd5b81019080803573ffffffffffffffffffffffffffffffffffffffff169060200190929190803573ffffffffffffffffffffffffffffffffffffffff169060200190929190803590602001909291908035906020019092919080359060200190640100000000811115610c9457600080fd5b820183602082011115610ca657600080fd5b80359060200191846001830284011164010000000083111715610cc857600080fd5b91908080601f016020809104026020016040519081016040528093929190818152602001838380828437600081840152601f19601f820116905080830192505050505050509192919290505050612b3d565b005b610d5e60048036036020811015610d3257600080fd5b81019080803573ffffffffffffffffffffffffffffffffffffffff169060200190929190505050612f07565b005b610db660048036036060811015610d7657600080fd5b81019080803573ffffffffffffffffffffffffffffffffffffffff1690602001909291908035906020019092919080359060200190929190505050612f8d565b005b610de460048036036020811015610dce57600080fd5b8101908080359060200190929190505050613040565b005b60006008600083815260200190815260200160002060009054906101000a900460ff169050919050565b60008073ffffffffffffffffffffffffffffffffffffffff168373ffffffffffffffffffffffffffffffffffffffff161415610e97576040517f08c379a0000000000000000000000000000000000000000000000000000000008152600401808060200182810382526029815260200180614eb26029913960400191505060405180910390fd5b6002600083815260200190815260200160002060008473ffffffffffffffffffffffffffffffffffffffff1673ffffffffffffffffffffffffffffffffffffffff16815260200190815260200160002054905092915050565b600060016000837bffffffffffffffffffffffffffffffffffffffffffffffffffffffff19167bffffffffffffffffffffffffffffffffffffffffffffffffffffffff1916815260200190815260200160002060009054906101000a900460ff169050919050565b6060610f867f2a641be68339e3f817fcb8acb158459b8bfcfb41c1a2e4840230dd22b7dc4a5360001b6131d2565b610fb27fd5edc44d07f3956807ae00e321745edc4feb41175b6eb454e1bdec564b91fba360001b6131d2565b610fde7ff2e3200fc35cf1f35cf4f909f599c7b6eb961356e5a81a279e6d9249b6ed53f960001b6131d2565b600082905061100f7f6551267584776408b06dac958c9348668b1fed3bca84addff42d1ebea63d656760001b6131d2565b61103b7f42abf367925e88fe66214d8a60b1ca93959bb5a605a511d783b13190acbd1d9f60001b6131d2565b60008114156110e9576110707f4cce6c7f83babb610d4723d69438fee94437b16e9988428cb4941d32d5ff302860001b6131d2565b61109c7f7de8fe7f59a9df9494e929c4b91df12b01ca5cf8efe0b103f948985690e7d0e860001b6131d2565b6110c87f241e601464480c1967fab60f6bf8dce73d2486db73141dc1b97156ab8a872b7160001b6131d2565b6040518060600160405280603c8152602001614f58603c91399150506117e2565b6111157ff5d4a0bed1027cd36ef00ac87ba73a2d4fee5015a84d66454e79799f6754b1d060001b6131d2565b6111417f19e52f1c50c7e40d98de8f92e677ada22db387c9ec3eda65eb11f17ec2b5d7e360001b6131d2565b61116d7fc9303433190a2f798abe37db69f293069da83c182a67e50614b9c834aeb7273e60001b6131d2565b6060604051806060016040528060368152602001614fbc6036913990506111b67f67f1b00a0056d7e489ab86e5200c5719f0e78e5fbeab2c1c5acb1e729c2a6b6660001b6131d2565b6111e27fd01cb1b36c420cdebe5f723335f5bd62b851df6e6742ba8cc09c6fa5f46cef6560001b6131d2565b60606112107f980bd4497a38f28d4bb0cb72c2d561dda8a2dda7942b14f8ecf733b222e539c160001b6131d2565b61123c7fc6572b1a7213221d47e000c5c0e4ba3ce10f2e44748eec73cdc6c0984ca30ba260001b6131d2565b600083905061126d7f8dbee729dbf7c0a3d8e9d52b8851063edba6ca283d9da1694504aaabbf67e7c260001b6131d2565b6112997ffe65dc8dab92885f9d2c092ed251ebc5c3f1faa9971d3c1d1b732afab7fe087560001b6131d2565b60006112c77f5d8c6c514bcd951def87a0cfa3c1676357c84be736159655fe7c2b618451fc3060001b6131d2565b6112f37f05d98e642ba32e49ce0a0306e32ef3a38b40a72e8c5b0e84b729182b493e4c5a60001b6131d2565b5b600082146113c4576113287f0e2f433697decc0f1321ef250448f4f6a033c4cac982619ec28c20ca67616f5f60001b6131d2565b6113547fc63c3ba43f4001f2752d214baa2e4be1b86df6b3cd454834bd31c810f9b0912260001b6131d2565b6001810190506113867f63442484eb06fec1392470ba9d98c41336d75cb25614e10700b4e4f6a8df63da60001b6131d2565b6113b27f397e331b88167a2aa13911a833ff87854af4792e27a4e495d81287861f34d71f60001b6131d2565b600a82816113bc57fe5b0491506112f4565b6113f07f27588a8dce1cc630354f33826980fe275b74ecb346533cb5b91840bdb704898b60001b6131d2565b61141c7f9390d1f079be5e0dfe0e83b846d13e25d7339f483e733e11918b26be6f0789f560001b6131d2565b6060816040519080825280601f01601f1916602001820160405280156114515781602001600182028038833980820191505090505b5090506114807f4a6d9ea6b9ac801f3049f7bf490c66522c2ef61a5cd4858dd22b92ba458dc2c560001b6131d2565b6114ac7f958c80f12f918f449354861630d06a87d3f215143fcdfcbf614d3b993956fd0960001b6131d2565b5b60008614611621576114e17f453f3ed2679d87e901c81357603e59f8d6c0f4ee790b43459fbbedf2f03559dd60001b6131d2565b61150d7f67656a7a17a025039339779e2ee75653bd2e5fee290ebdd42d90c63d2b0bc78760001b6131d2565b60018203915061153f7f81e496af34924298c3f4ec6c4decf7085aba5fec014e0eeda322127c0cbaa72760001b6131d2565b61156b7f1fa140c6817f30f52dd827e1d233bd254f9fd76852c5d512efa4824d990613a560001b6131d2565b600a868161157557fe5b0660300160f81b81838151811061158857fe5b60200101907effffffffffffffffffffffffffffffffffffffffffffffffffffffffffffff1916908160001a9053506115e37f0dbc1406af1621ca7ddc0d9aa815292cdebdbf51f052f3ee5e7080c4f9c56fe260001b6131d2565b61160f7f08bb90064cd7436feb7676907ec12fc9851e559daae51dedb2200cb436a27a4260001b6131d2565b600a868161161957fe5b0495506114ad565b61164d7f04180c38d6b37db22bd6daf1c69fe7174d3374ad352f108244e48f376812ffa760001b6131d2565b6116797f8aacb6dd1f5547bda358db94f88b4593a33d5ab1eb6f0393aa83f25adceca43060001b6131d2565b8093506116a87f552e4614b5b9d475f3076dd12dbff2cf9dcddf3abd081bd96ee4b714fc4fd93660001b6131d2565b6116d47f9c5dd230dc67d9f862ec3d3b6d0250bb178e3816b20f86077a1e42994f7228e260001b6131d2565b60008551116116f257604051806020016040528060008152506117d9565b84846040516020018083805190602001908083835b6020831061172a5780518252602082019150602081019050602083039250611707565b6001836020036101000a03801982511681845116808217855250505050505090500182805190602001908083835b6020831061177b5780518252602082019150602081019050602083039250611758565b6001836020036101000a038019825116818451168082178552505050505050905001807f2e6a736f6e000000000000000000000000000000000000000000000000000000815250600501925050506040516020818303038152906040525b96505050505050505b919050565b6117f0336120d9565b611845576040517f08c379a0000000000000000000000000000000000000000000000000000000008152600401808060200182810382526030815260200180614e196030913960400191505060405180910390fd5b600015156008600083815260200190815260200160002060009054906101000a900460ff161515146118df576040517f08c379a000000000000000000000000000000000000000000000000000000000815260040180806020018281038252601d8152602001807f4b495033375061757361626c653a20616c72656164792070617573656400000081525060200191505060405180910390fd5b60016008600083815260200190815260200160002060006101000a81548160ff0219169083151502179055507fabdb1c9133626eb4f8c5f2ec7e3c60a969a2fb148a0c341a3cf6597242c8f8f58133604051808381526020018273ffffffffffffffffffffffffffffffffffffffff1673ffffffffffffffffffffffffffffffffffffffff1681526020019250505060405180910390a150565b6119816126d6565b6119f3576040517f08c379a00000000000000000000000000000000000000000000000000000000081526004018080602001828103825260208152602001807f4f776e61626c653a2063616c6c6572206973206e6f7420746865206f776e657281525060200191505060405180910390fd5b611a1f7f694222635d423d5128c2f2b2c27a74bc42dd2589fa95377edb5b804d1f6aa76560001b6131d2565b611a4b7f9eac18656e9b0ff23c1850cda3bc4c1c6ecbe550b5e833543c2541e29df7246260001b6131d2565b611a777f2e8d4a890797cd1f965f0edfc10f0ae1fe8bc6a1963ce3070f7d99ff97b69d4b60001b6131d2565b611a92338383604051806020016040528060008152506131d5565b5050565b8151835114611af0576040517f08c379a0000000000000000000000000000000000000000000000000000000008152600401808060200182810382526026815260200180614f026026913960400191505060405180910390fd5b600073ffffffffffffffffffffffffffffffffffffffff168473ffffffffffffffffffffffffffffffffffffffff161415611b76576040517f08c379a00000000000000000000000000000000000000000000000000000000081526004018080602001828103825260238152602001806150dd6023913960400191505060405180910390fd5b611b7e613487565b73ffffffffffffffffffffffffffffffffffffffff168573ffffffffffffffffffffffffffffffffffffffff161480611bc45750611bc385611bbe613487565b612aa9565b5b611c19576040517f08c379a0000000000000000000000000000000000000000000000000000000008152600401808060200182810382526030815260200180614f286030913960400191505060405180910390fd5b6000611c23613487565b9050611c3381878787878761348f565b60008090505b8451811015611e07576000858281518110611c5057fe5b602002602001015190506000858381518110611c6857fe5b60200260200101519050611cef81604051806060016040528060288152602001614f94602891396002600086815260200190815260200160002060008d73ffffffffffffffffffffffffffffffffffffffff1673ffffffffffffffffffffffffffffffffffffffff168152602001908152602001600020546135a29092919063ffffffff16565b6002600084815260200190815260200160002060008b73ffffffffffffffffffffffffffffffffffffffff1673ffffffffffffffffffffffffffffffffffffffff16815260200190815260200160002081905550611da6816002600085815260200190815260200160002060008b73ffffffffffffffffffffffffffffffffffffffff1673ffffffffffffffffffffffffffffffffffffffff1681526020019081526020016000205461366290919063ffffffff16565b6002600084815260200190815260200160002060008a73ffffffffffffffffffffffffffffffffffffffff1673ffffffffffffffffffffffffffffffffffffffff168152602001908152602001600020819055505050806001019050611c39565b508473ffffffffffffffffffffffffffffffffffffffff168673ffffffffffffffffffffffffffffffffffffffff168273ffffffffffffffffffffffffffffffffffffffff167f4a39dc06d4c0dbc64b70af90fd698a233a518aa5d07e595d983b8c0526c8f7fb8787604051808060200180602001838103835285818151815260200191508051906020019060200280838360005b83811015611eb7578082015181840152602081019050611e9c565b50505050905001838103825284818151815260200191508051906020019060200280838360005b83811015611ef9578082015181840152602081019050611ede565b5050505090500194505050505060405180910390a4611f1c8187878787876136ea565b611f71576040517f08c379a00000000000000000000000000000000000000000000000000000000081526004018080602001828103825260368152602001806151006036913960400191505060405180910390fd5b505050505050565b611f82336120d9565b611fd7576040517f08c379a0000000000000000000000000000000000000000000000000000000008152600401808060200182810382526030815260200180614e196030913960400191505060405180910390fd5b600760009054906101000a900460ff16612059576040517f08c379a00000000000000000000000000000000000000000000000000000000081526004018080602001828103825260148152602001807f5061757361626c653a206e6f742070617573656400000000000000000000000081525060200191505060405180910390fd5b6000600760006101000a81548160ff0219169083151502179055507f5db9ee0a495bf2e6ff9c91a7834c1ba4fdd244a5e8aa4e537bd38aeae4b073aa33604051808273ffffffffffffffffffffffffffffffffffffffff1673ffffffffffffffffffffffffffffffffffffffff16815260200191505060405180910390a1565b60006120ef826006613d6290919063ffffffff16565b9050919050565b60608151835114612152576040517f08c379a0000000000000000000000000000000000000000000000000000000008152600401808060200182810382526027815260200180614df26027913960400191505060405180910390fd5b606083516040519080825280602002602001820160405280156121845781602001602082028038833980820191505090505b50905060008090505b84518110156122c957600073ffffffffffffffffffffffffffffffffffffffff168582815181106121ba57fe5b602002602001015173ffffffffffffffffffffffffffffffffffffffff16141561222f576040517f08c379a000000000000000000000000000000000000000000000000000000000815260040180806020018281038252602f815260200180615136602f913960400191505060405180910390fd5b6002600085838151811061223f57fe5b60200260200101518152602001908152602001600020600086838151811061226357fe5b602002602001015173ffffffffffffffffffffffffffffffffffffffff1673ffffffffffffffffffffffffffffffffffffffff168152602001908152602001600020548282815181106122b257fe5b60200260200101818152505080600101905061218d565b508091505092915050565b6000600760009054906101000a900460ff16905090565b6122f3613487565b73ffffffffffffffffffffffffffffffffffffffff168373ffffffffffffffffffffffffffffffffffffffff161480612339575061233883612333613487565b612aa9565b5b61238e576040517f08c379a00000000000000000000000000000000000000000000000000000000081526004018080602001828103825260278152602001806150b66027913960400191505060405180910390fd5b612399838383613e40565b505050565b6123a73361420e565b565b6123b16126d6565b612423576040517f08c379a00000000000000000000000000000000000000000000000000000000081526004018080602001828103825260208152602001807f4f776e61626c653a2063616c6c6572206973206e6f7420746865206f776e657281525060200191505060405180910390fd5b600073ffffffffffffffffffffffffffffffffffffffff166000809054906101000a900473ffffffffffffffffffffffffffffffffffffffff1673ffffffffffffffffffffffffffffffffffffffff167f8be0079c531659141344cd1fd0a4f28419497f9722a3daafe3b4186f6b6457e060405160405180910390a360008060006101000a81548173ffffffffffffffffffffffffffffffffffffffff021916908373ffffffffffffffffffffffffffffffffffffffff160217905550565b6124eb336120d9565b612540576040517f08c379a0000000000000000000000000000000000000000000000000000000008152600401808060200182810382526030815260200180614e196030913960400191505060405180910390fd5b61254981614268565b50565b612555336120d9565b6125aa576040517f08c379a0000000000000000000000000000000000000000000000000000000008152600401808060200182810382526030815260200180614e196030913960400191505060405180910390fd5b600760009054906101000a900460ff161561262d576040517f08c379a00000000000000000000000000000000000000000000000000000000081526004018080602001828103825260108152602001807f5061757361626c653a207061757365640000000000000000000000000000000081525060200191505060405180910390fd5b6001600760006101000a81548160ff0219169083151502179055507f62e78cea01bee320cd4e420270b5ea74000d11b0c9f74754ebdbfc544b05a25833604051808273ffffffffffffffffffffffffffffffffffffffff1673ffffffffffffffffffffffffffffffffffffffff16815260200191505060405180910390a1565b60008060009054906101000a900473ffffffffffffffffffffffffffffffffffffffff16905090565b60008060009054906101000a900473ffffffffffffffffffffffffffffffffffffffff1673ffffffffffffffffffffffffffffffffffffffff163373ffffffffffffffffffffffffffffffffffffffff1614905090565b8173ffffffffffffffffffffffffffffffffffffffff1661274c613487565b73ffffffffffffffffffffffffffffffffffffffff1614156127b9576040517f08c379a000000000000000000000000000000000000000000000000000000000815260040180806020018281038252602781526020018061503d6027913960400191505060405180910390fd5b80600360006127c6613487565b73ffffffffffffffffffffffffffffffffffffffff1673ffffffffffffffffffffffffffffffffffffffff16815260200190815260200160002060008473ffffffffffffffffffffffffffffffffffffffff1673ffffffffffffffffffffffffffffffffffffffff16815260200190815260200160002060006101000a81548160ff0219169083151502179055508173ffffffffffffffffffffffffffffffffffffffff16612873613487565b73ffffffffffffffffffffffffffffffffffffffff167f17307eab39ab6107e8899845ad3d59bd9653f200f220920489ca2b5937696c3183604051808215151515815260200191505060405180910390a35050565b6128f47f987174b279e52e6c9baf68d6416ac7596e1f092e1acd8b9d60ed7336f1f7047160001b6131d2565b6129207f74e4baf8f06cf2f2ffe3080e70a819e8bd54d304ab5b6de3205c3da7b326f8ac60001b6131d2565b61294c7fc69adb3e875c5698099cad288f4ac641555ab383c40a75169246fd0b42870ef760001b6131d2565b60008282905090506129807f421167c55abef31e756f64b5bf964faa414c559dee1284e6deaeb10e86495c7e60001b6131d2565b6129ac7fc3e213c30659d4e24efdad1ac9aece1ad27af63f940bc50c34d33b96bb61a14c60001b6131d2565b60008090505b81811015612a84576129e67f8d9c6e53ae650f39a537f9c14bc3885bab8e285fe7058fc625b209f2ee9c2fba60001b6131d2565b612a127f294a73653cb7d8c210dc6ed012522f0bb44acc72e3ab9e816fdf46f51aa6dc7e60001b6131d2565b612a6933878784818110612a2257fe5b9050602002013573ffffffffffffffffffffffffffffffffffffffff16868685818110612a4b57fe5b90506020020135600160405180602001604052806000815250612b3d565b612a7d60018261366290919063ffffffff16565b90506129b2565b505050505050565b600060046000838152602001908152602001600020549050919050565b6000600360008473ffffffffffffffffffffffffffffffffffffffff1673ffffffffffffffffffffffffffffffffffffffff16815260200190815260200160002060008373ffffffffffffffffffffffffffffffffffffffff1673ffffffffffffffffffffffffffffffffffffffff16815260200190815260200160002060009054906101000a900460ff16905092915050565b600073ffffffffffffffffffffffffffffffffffffffff168473ffffffffffffffffffffffffffffffffffffffff161415612bc3576040517f08c379a00000000000000000000000000000000000000000000000000000000081526004018080602001828103825260238152602001806150dd6023913960400191505060405180910390fd5b612bcb613487565b73ffffffffffffffffffffffffffffffffffffffff168573ffffffffffffffffffffffffffffffffffffffff161480612c115750612c1085612c0b613487565b612aa9565b5b612c66576040517f08c379a00000000000000000000000000000000000000000000000000000000081526004018080602001828103825260278152602001806150b66027913960400191505060405180910390fd5b6000612c70613487565b9050612c90818787612c81886142c2565b612c8a886142c2565b8761348f565b612d0d83604051806060016040528060288152602001614f94602891396002600088815260200190815260200160002060008a73ffffffffffffffffffffffffffffffffffffffff1673ffffffffffffffffffffffffffffffffffffffff168152602001908152602001600020546135a29092919063ffffffff16565b6002600086815260200190815260200160002060008873ffffffffffffffffffffffffffffffffffffffff1673ffffffffffffffffffffffffffffffffffffffff16815260200190815260200160002081905550612dc4836002600087815260200190815260200160002060008873ffffffffffffffffffffffffffffffffffffffff1673ffffffffffffffffffffffffffffffffffffffff1681526020019081526020016000205461366290919063ffffffff16565b6002600086815260200190815260200160002060008773ffffffffffffffffffffffffffffffffffffffff1673ffffffffffffffffffffffffffffffffffffffff168152602001908152602001600020819055508473ffffffffffffffffffffffffffffffffffffffff168673ffffffffffffffffffffffffffffffffffffffff168273ffffffffffffffffffffffffffffffffffffffff167fc3d58168c5ae7397731d063d5bbf3d657854427343f4c083240f7aacaa2d0f628787604051808381526020018281526020019250505060405180910390a4612eaa81878787878761431b565b612eff576040517f08c379a00000000000000000000000000000000000000000000000000000000081526004018080602001828103825260308152602001806150866030913960400191505060405180910390fd5b505050505050565b612f0f6126d6565b612f81576040517f08c379a00000000000000000000000000000000000000000000000000000000081526004018080602001828103825260208152602001807f4f776e61626c653a2063616c6c6572206973206e6f7420746865206f776e657281525060200191505060405180910390fd5b612f8a8161488f565b50565b612f95613487565b73ffffffffffffffffffffffffffffffffffffffff168373ffffffffffffffffffffffffffffffffffffffff161480612fdb5750612fda83612fd5613487565b612aa9565b5b613030576040517f08c379a00000000000000000000000000000000000000000000000000000000081526004018080602001828103825260278152602001806150b66027913960400191505060405180910390fd5b61303b8383836149d3565b505050565b613049336120d9565b61309e576040517f08c379a0000000000000000000000000000000000000000000000000000000008152600401808060200182810382526030815260200180614e196030913960400191505060405180910390fd5b600115156008600083815260200190815260200160002060009054906101000a900460ff16151514613138576040517f08c379a000000000000000000000000000000000000000000000000000000000815260040180806020018281038252601f8152602001807f4b495033375061757361626c653a20616c726561647920756e7061757365640081525060200191505060405180910390fd5b60006008600083815260200190815260200160002060006101000a81548160ff0219169083151502179055507ffe9b5e5216db9de81757f43d20f846bea509c040a560d136b8263dd8cd7642388133604051808381526020018273ffffffffffffffffffffffffffffffffffffffff1673ffffffffffffffffffffffffffffffffffffffff1681526020019250505060405180910390a150565b50565b600073ffffffffffffffffffffffffffffffffffffffff168473ffffffffffffffffffffffffffffffffffffffff161415613278576040517f08c379a000000000000000000000000000000000000000000000000000000000815260040180806020018281038252601f8152602001807f4b495033373a206d696e7420746f20746865207a65726f20616464726573730081525060200191505060405180910390fd5b6000613282613487565b90506132a381600087613294886142c2565b61329d886142c2565b8761348f565b613306836002600087815260200190815260200160002060008873ffffffffffffffffffffffffffffffffffffffff1673ffffffffffffffffffffffffffffffffffffffff1681526020019081526020016000205461366290919063ffffffff16565b6002600086815260200190815260200160002060008773ffffffffffffffffffffffffffffffffffffffff1673ffffffffffffffffffffffffffffffffffffffff1681526020019081526020016000208190555061338083600460008781526020019081526020016000205461366290919063ffffffff16565b60046000868152602001908152602001600020819055508473ffffffffffffffffffffffffffffffffffffffff16600073ffffffffffffffffffffffffffffffffffffffff168273ffffffffffffffffffffffffffffffffffffffff167fc3d58168c5ae7397731d063d5bbf3d657854427343f4c083240f7aacaa2d0f628787604051808381526020018281526020019250505060405180910390a461342b8160008787878761431b565b613480576040517f08c379a00000000000000000000000000000000000000000000000000000000081526004018080602001828103825260308152602001806150866030913960400191505060405180910390fd5b5050505050565b600033905090565b6134976122d4565b156134ed576040517f08c379a000000000000000000000000000000000000000000000000000000000815260040180806020018281038252602a815260200180615013602a913960400191505060405180910390fd5b60008090505b835181101561359957600015156008600086848151811061351057fe5b6020026020010151815260200190815260200160002060009054906101000a900460ff1615151461358c576040517f08c379a00000000000000000000000000000000000000000000000000000000081526004018080602001828103825260228152602001806151656022913960400191505060405180910390fd5b80806001019150506134f3565b50505050505050565b600083831115829061364f576040517f08c379a00000000000000000000000000000000000000000000000000000000081526004018080602001828103825283818151815260200191508051906020019080838360005b838110156136145780820151818401526020810190506135f9565b50505050905090810190601f1680156136415780820380516001836020036101000a031916815260200191505b509250505060405180910390fd5b5060008385039050809150509392505050565b6000808284019050838110156136e0576040517f08c379a000000000000000000000000000000000000000000000000000000000815260040180806020018281038252601b8152602001807f536166654d6174683a206164646974696f6e206f766572666c6f77000000000081525060200191505060405180910390fd5b8091505092915050565b600080606061370e8773ffffffffffffffffffffffffffffffffffffffff16614c46565b61371d57600192505050613d58565b8673ffffffffffffffffffffffffffffffffffffffff1663bc197c8160e01b8a8a898989604051602401808673ffffffffffffffffffffffffffffffffffffffff1673ffffffffffffffffffffffffffffffffffffffff1681526020018573ffffffffffffffffffffffffffffffffffffffff1673ffffffffffffffffffffffffffffffffffffffff168152602001806020018060200180602001848103845287818151815260200191508051906020019060200280838360005b838110156137f35780820151818401526020810190506137d8565b50505050905001848103835286818151815260200191508051906020019060200280838360005b8381101561383557808201518184015260208101905061381a565b50505050905001848103825285818151815260200191508051906020019080838360005b83811015613874578082015181840152602081019050613859565b50505050905090810190601f1680156138a15780820380516001836020036101000a031916815260200191505b5098505050505050505050604051602081830303815290604052907bffffffffffffffffffffffffffffffffffffffffffffffffffffffff19166020820180517bffffffffffffffffffffffffffffffffffffffffffffffffffffffff83818316178352505050506040518082805190602001908083835b6020831061393c5780518252602082019150602081019050602083039250613919565b6001836020036101000a0380198251168184511680821785525050505050509050019150506000604051808303816000865af19150503d806000811461399e576040519150601f19603f3d011682016040523d82523d6000602084013e6139a3565b606091505b5080925081935050506000815114158015613a27575063bc197c8160e01b7bffffffffffffffffffffffffffffffffffffffffffffffffffffffff19168180602001905160208110156139f557600080fd5b81019080805190602001909291905050507bffffffffffffffffffffffffffffffffffffffffffffffffffffffff1916145b15613a3757600192505050613d58565b8673ffffffffffffffffffffffffffffffffffffffff16639b49e33260e01b8a8a898989604051602401808673ffffffffffffffffffffffffffffffffffffffff1673ffffffffffffffffffffffffffffffffffffffff1681526020018573ffffffffffffffffffffffffffffffffffffffff1673ffffffffffffffffffffffffffffffffffffffff168152602001806020018060200180602001848103845287818151815260200191508051906020019060200280838360005b83811015613b0d578082015181840152602081019050613af2565b50505050905001848103835286818151815260200191508051906020019060200280838360005b83811015613b4f578082015181840152602081019050613b34565b50505050905001848103825285818151815260200191508051906020019080838360005b83811015613b8e578082015181840152602081019050613b73565b50505050905090810190601f168015613bbb5780820380516001836020036101000a031916815260200191505b5098505050505050505050604051602081830303815290604052907bffffffffffffffffffffffffffffffffffffffffffffffffffffffff19166020820180517bffffffffffffffffffffffffffffffffffffffffffffffffffffffff83818316178352505050506040518082805190602001908083835b60208310613c565780518252602082019150602081019050602083039250613c33565b6001836020036101000a0380198251168184511680821785525050505050509050019150506000604051808303816000865af19150503d8060008114613cb8576040519150601f19603f3d011682016040523d82523d6000602084013e613cbd565b606091505b5080925081935050506000815114158015613d415750639b49e33260e01b7bffffffffffffffffffffffffffffffffffffffffffffffffffffffff1916818060200190516020811015613d0f57600080fd5b81019080805190602001909291905050507bffffffffffffffffffffffffffffffffffffffffffffffffffffffff1916145b15613d5157600192505050613d58565b6000925050505b9695505050505050565b60008073ffffffffffffffffffffffffffffffffffffffff168273ffffffffffffffffffffffffffffffffffffffff161415613de9576040517f08c379a00000000000000000000000000000000000000000000000000000000081526004018080602001828103825260228152602001806150646022913960400191505060405180910390fd5b8260000160008373ffffffffffffffffffffffffffffffffffffffff1673ffffffffffffffffffffffffffffffffffffffff16815260200190815260200160002060009054906101000a900460ff16905092915050565b600073ffffffffffffffffffffffffffffffffffffffff168373ffffffffffffffffffffffffffffffffffffffff161415613ec6576040517f08c379a0000000000000000000000000000000000000000000000000000000008152600401808060200182810382526021815260200180614e916021913960400191505060405180910390fd5b8051825114613f20576040517f08c379a0000000000000000000000000000000000000000000000000000000008152600401808060200182810382526026815260200180614f026026913960400191505060405180910390fd5b6000613f2a613487565b9050613f4a8185600086866040518060200160405280600081525061348f565b60008090505b835181101561410057613ffc838281518110613f6857fe5b6020026020010151604051806060016040528060228152602001614e6f6022913960026000888681518110613f9957fe5b6020026020010151815260200190815260200160002060008973ffffffffffffffffffffffffffffffffffffffff1673ffffffffffffffffffffffffffffffffffffffff168152602001908152602001600020546135a29092919063ffffffff16565b6002600086848151811061400c57fe5b6020026020010151815260200190815260200160002060008773ffffffffffffffffffffffffffffffffffffffff1673ffffffffffffffffffffffffffffffffffffffff168152602001908152602001600020819055506140c983828151811061407257fe5b6020026020010151604051806060016040528060278152602001614edb60279139600460008886815181106140a357fe5b60200260200101518152602001908152602001600020546135a29092919063ffffffff16565b600460008684815181106140d957fe5b60200260200101518152602001908152602001600020819055508080600101915050613f50565b50600073ffffffffffffffffffffffffffffffffffffffff168473ffffffffffffffffffffffffffffffffffffffff168273ffffffffffffffffffffffffffffffffffffffff167f4a39dc06d4c0dbc64b70af90fd698a233a518aa5d07e595d983b8c0526c8f7fb8686604051808060200180602001838103835285818151815260200191508051906020019060200280838360005b838110156141b1578082015181840152602081019050614196565b50505050905001838103825284818151815260200191508051906020019060200280838360005b838110156141f35780820151818401526020810190506141d8565b5050505090500194505050505060405180910390a450505050565b614222816006614c5990919063ffffffff16565b8073ffffffffffffffffffffffffffffffffffffffff167fcd265ebaf09df2871cc7bd4133404a235ba12eff2041bb89d9c714a2621c7c7e60405160405180910390a250565b61427c816006614d1690919063ffffffff16565b8073ffffffffffffffffffffffffffffffffffffffff167f6719d08c1888103bea251a4ed56406bd0c3e69723c8a1686e017e7bbe159b6f860405160405180910390a250565b60608060016040519080825280602002602001820160405280156142f55781602001602082028038833980820191505090505b509050828160008151811061430657fe5b60200260200101818152505080915050919050565b600080606061433f8773ffffffffffffffffffffffffffffffffffffffff16614c46565b61434e57600192505050614885565b8673ffffffffffffffffffffffffffffffffffffffff1663f23a6e6160e01b8a8a898989604051602401808673ffffffffffffffffffffffffffffffffffffffff1673ffffffffffffffffffffffffffffffffffffffff1681526020018573ffffffffffffffffffffffffffffffffffffffff1673ffffffffffffffffffffffffffffffffffffffff16815260200184815260200183815260200180602001828103825283818151815260200191508051906020019080838360005b8381101561442557808201518184015260208101905061440a565b50505050905090810190601f1680156144525780820380516001836020036101000a031916815260200191505b509650505050505050604051602081830303815290604052907bffffffffffffffffffffffffffffffffffffffffffffffffffffffff19166020820180517bffffffffffffffffffffffffffffffffffffffffffffffffffffffff83818316178352505050506040518082805190602001908083835b602083106144eb57805182526020820191506020810190506020830392506144c8565b6001836020036101000a0380198251168184511680821785525050505050509050019150506000604051808303816000865af19150503d806000811461454d576040519150601f19603f3d011682016040523d82523d6000602084013e614552565b606091505b50809250819350505060008151141580156145d6575063f23a6e6160e01b7bffffffffffffffffffffffffffffffffffffffffffffffffffffffff19168180602001905160208110156145a457600080fd5b81019080805190602001909291905050507bffffffffffffffffffffffffffffffffffffffffffffffffffffffff1916145b156145e657600192505050614885565b8673ffffffffffffffffffffffffffffffffffffffff1663e78b332560e01b8a8a898989604051602401808673ffffffffffffffffffffffffffffffffffffffff1673ffffffffffffffffffffffffffffffffffffffff1681526020018573ffffffffffffffffffffffffffffffffffffffff1673ffffffffffffffffffffffffffffffffffffffff16815260200184815260200183815260200180602001828103825283818151815260200191508051906020019080838360005b838110156146bd5780820151818401526020810190506146a2565b50505050905090810190601f1680156146ea5780820380516001836020036101000a031916815260200191505b509650505050505050604051602081830303815290604052907bffffffffffffffffffffffffffffffffffffffffffffffffffffffff19166020820180517bffffffffffffffffffffffffffffffffffffffffffffffffffffffff83818316178352505050506040518082805190602001908083835b602083106147835780518252602082019150602081019050602083039250614760565b6001836020036101000a0380198251168184511680821785525050505050509050019150506000604051808303816000865af19150503d80600081146147e5576040519150601f19603f3d011682016040523d82523d6000602084013e6147ea565b606091505b508092508193505050600081511415801561486e575063e78b332560e01b7bffffffffffffffffffffffffffffffffffffffffffffffffffffffff191681806020019051602081101561483c57600080fd5b81019080805190602001909291905050507bffffffffffffffffffffffffffffffffffffffffffffffffffffffff1916145b1561487e57600192505050614885565b6000925050505b9695505050505050565b600073ffffffffffffffffffffffffffffffffffffffff168173ffffffffffffffffffffffffffffffffffffffff161415614915576040517f08c379a0000000000000000000000000000000000000000000000000000000008152600401808060200182810382526026815260200180614e496026913960400191505060405180910390fd5b8073ffffffffffffffffffffffffffffffffffffffff166000809054906101000a900473ffffffffffffffffffffffffffffffffffffffff1673ffffffffffffffffffffffffffffffffffffffff167f8be0079c531659141344cd1fd0a4f28419497f9722a3daafe3b4186f6b6457e060405160405180910390a3806000806101000a81548173ffffffffffffffffffffffffffffffffffffffff021916908373ffffffffffffffffffffffffffffffffffffffff16021790555050565b600073ffffffffffffffffffffffffffffffffffffffff168373ffffffffffffffffffffffffffffffffffffffff161415614a59576040517f08c379a0000000000000000000000000000000000000000000000000000000008152600401808060200182810382526021815260200180614e916021913960400191505060405180910390fd5b6000614a63613487565b9050614a9381856000614a75876142c2565b614a7e876142c2565b6040518060200160405280600081525061348f565b614b1082604051806060016040528060228152602001614e6f602291396002600087815260200190815260200160002060008873ffffffffffffffffffffffffffffffffffffffff1673ffffffffffffffffffffffffffffffffffffffff168152602001908152602001600020546135a29092919063ffffffff16565b6002600085815260200190815260200160002060008673ffffffffffffffffffffffffffffffffffffffff1673ffffffffffffffffffffffffffffffffffffffff16815260200190815260200160002081905550614ba482604051806060016040528060278152602001614edb6027913960046000878152602001908152602001600020546135a29092919063ffffffff16565b6004600085815260200190815260200160002081905550600073ffffffffffffffffffffffffffffffffffffffff168473ffffffffffffffffffffffffffffffffffffffff168273ffffffffffffffffffffffffffffffffffffffff167fc3d58168c5ae7397731d063d5bbf3d657854427343f4c083240f7aacaa2d0f628686604051808381526020018281526020019250505060405180910390a450505050565b600080823b905060008111915050919050565b614c638282613d62565b614cb8576040517f08c379a0000000000000000000000000000000000000000000000000000000008152600401808060200182810382526021815260200180614ff26021913960400191505060405180910390fd5b60008260000160008373ffffffffffffffffffffffffffffffffffffffff1673ffffffffffffffffffffffffffffffffffffffff16815260200190815260200160002060006101000a81548160ff0219169083151502179055505050565b614d208282613d62565b15614d93576040517f08c379a000000000000000000000000000000000000000000000000000000000815260040180806020018281038252601f8152602001807f526f6c65733a206163636f756e7420616c72656164792068617320726f6c650081525060200191505060405180910390fd5b60018260000160008373ffffffffffffffffffffffffffffffffffffffff1673ffffffffffffffffffffffffffffffffffffffff16815260200190815260200160002060006101000a81548160ff021916908315150217905550505056fe4b495033373a206163636f756e747320616e6420696473206c656e677468206d69736d61746368506175736572526f6c653a2063616c6c657220646f6573206e6f742068617665207468652050617573657220726f6c654f776e61626c653a206e6577206f776e657220697320746865207a65726f20616464726573734b495033373a206275726e20616d6f756e7420657863656564732062616c616e63654b495033373a206275726e2066726f6d20746865207a65726f20616464726573734b495033373a2062616c616e636520717565727920666f7220746865207a65726f20616464726573734b495033373a206275726e20616d6f756e74206578636565647320746f74616c20737570706c794b495033373a2069647320616e6420616d6f756e7473206c656e677468206d69736d617463684b495033373a207472616e736665722063616c6c6572206973206e6f74206f776e6572206e6f7220617070726f76656468747470733a2f2f6170692e6369706865722d617373656d626c792e636f6d2f6e6674732f627261672f6167656e64612f6d6574612f302e6a736f6e4b495033373a20696e73756666696369656e742062616c616e636520666f72207472616e7366657268747470733a2f2f6170692e6369706865722d617373656d626c792e636f6d2f6e6674732f627261672f6167656e64612f6d6574612f526f6c65733a206163636f756e7420646f6573206e6f74206861766520726f6c654b495033375061757361626c653a20746f6b656e207472616e73666572207768696c65207061757365644b495033373a2073657474696e6720617070726f76616c2073746174757320666f722073656c66526f6c65733a206163636f756e7420697320746865207a65726f20616464726573734b495033373a207472616e7366657220746f206e6f6e204b49503337526563656976657220696d706c656d656e7465724b495033373a2063616c6c6572206973206e6f74206f776e6572206e6f7220617070726f7665644b495033373a207472616e7366657220746f20746865207a65726f20616464726573734b495033373a206261746368207472616e7366657220746f206e6f6e204b49503337526563656976657220696d706c656d656e7465724b495033373a2062617463682062616c616e636520717565727920666f7220746865207a65726f20616464726573734b495033375061757361626c653a2074686520746f6b656e20697320706175736564a165627a7a7230582040515aa3ac827ace2f18e375474e325db4d6c15c29041396b745f8d3e304e9fe0029526f6c65733a206163636f756e7420697320746865207a65726f206164647265737368747470733a2f2f6170692e6369706865722d617373656d626c792e636f6d2f6e6674732f627261672f6167656e64612f6d6574612f7b69647d2e6a736f6e",
  "linkReferences": {},
  "deployedLinkReferences": {}
}